{
  "_format": "hh-sol-artifact-1",
  "contractName": "WavePortal",
  "sourceName": "contracts/WavePortal.sol",
  "abi": [
    {
      "inputs": [],
      "stateMutability": "payable",
      "type": "constructor"
    },
    {
      "anonymous": false,
      "inputs": [
        {
          "indexed": true,
          "internalType": "address",
          "name": "from",
          "type": "address"
        },
        {
          "indexed": false,
          "internalType": "uint256",
          "name": "timestamp",
          "type": "uint256"
        },
        {
          "indexed": false,
          "internalType": "string",
          "name": "message",
          "type": "string"
        }
      ],
      "name": "NewWave",
      "type": "event"
    },
    {
      "inputs": [],
      "name": "getAllWaves",
      "outputs": [
        {
          "components": [
            {
              "internalType": "address",
              "name": "waver",
              "type": "address"
            },
            {
              "internalType": "string",
              "name": "message",
              "type": "string"
            },
            {
              "internalType": "uint256",
              "name": "timestamp",
              "type": "uint256"
            }
          ],
          "internalType": "struct WavePortal.Wave[]",
          "name": "",
          "type": "tuple[]"
        }
      ],
      "stateMutability": "view",
      "type": "function"
    },
    {
      "inputs": [],
      "name": "getTotalWaves",
      "outputs": [
        {
          "internalType": "uint256",
          "name": "",
          "type": "uint256"
        }
      ],
      "stateMutability": "view",
      "type": "function"
    },
    {
      "inputs": [
        {
          "internalType": "address",
          "name": "",
          "type": "address"
        }
      ],
      "name": "lastWavedAt",
      "outputs": [
        {
          "internalType": "uint256",
          "name": "",
          "type": "uint256"
        }
      ],
      "stateMutability": "view",
      "type": "function"
    },
    {
      "inputs": [
        {
          "internalType": "address",
          "name": "",
          "type": "address"
        }
      ],
      "name": "totalWaves",
      "outputs": [
        {
          "internalType": "uint256",
          "name": "",
          "type": "uint256"
        }
      ],
      "stateMutability": "view",
      "type": "function"
    },
    {
      "inputs": [
        {
          "internalType": "string",
          "name": "_message",
          "type": "string"
        }
      ],
      "name": "wave",
      "outputs": [],
      "stateMutability": "nonpayable",
      "type": "function"
    }
  ],
  "bytecode": "0x60806040526200003360405180606001604052806029815260200162001621602991396200005b60201b620007901760201c565b60644442620000439190620001a8565b6200004f919062000245565b600281905550620002ec565b620000fb8160405160240162000072919062000168565b6040516020818303038152906040527f41304fac000000000000000000000000000000000000000000000000000000007bffffffffffffffffffffffffffffffffffffffffffffffffffffffff19166020820180517bffffffffffffffffffffffffffffffffffffffffffffffffffffffff8381831617835250505050620000fe60201b60201c565b50565b60008151905060006a636f6e736f6c652e6c6f679050602083016000808483855afa5050505050565b600062000134826200018c565b62000140818562000197565b9350620001528185602086016200020f565b6200015d81620002db565b840191505092915050565b6000602082019050818103600083015262000184818462000127565b905092915050565b600081519050919050565b600082825260208201905092915050565b6000620001b58262000205565b9150620001c28362000205565b9250827fffffffffffffffffffffffffffffffffffffffffffffffffffffffffffffffff03821115620001fa57620001f96200027d565b5b828201905092915050565b6000819050919050565b60005b838110156200022f57808201518184015260208101905062000212565b838111156200023f576000848401525b50505050565b6000620002528262000205565b91506200025f8362000205565b925082620002725762000271620002ac565b5b828206905092915050565b7f4e487b7100000000000000000000000000000000000000000000000000000000600052601160045260246000fd5b7f4e487b7100000000000000000000000000000000000000000000000000000000600052601260045260246000fd5b6000601f19601f8301169050919050565b61132580620002fc6000396000f3fe608060405234801561001057600080fd5b50600436106100575760003560e01c8063449d46c01461005c5780639a2cdc0814610078578063a42a466314610096578063bd43a908146100c6578063fd431226146100e4575b600080fd5b61007660048036038101906100719190610b72565b610114565b005b61008061054b565b60405161008d9190610fb7565b60405180910390f35b6100b060048036038101906100ab9190610b49565b61060f565b6040516100bd9190610fb7565b60405180910390f35b6100ce610627565b6040516100db9190610e75565b60405180910390f35b6100fe60048036038101906100f99190610b49565b610778565b60405161010b9190610fb7565b60405180910390f35b426014600160003373ffffffffffffffffffffffffffffffffffffffff1673ffffffffffffffffffffffffffffffffffffffff1681526020019081526020016000205461016191906110d4565b106101a1576040517f08c379a000000000000000000000000000000000000000000000000000000000815260040161019890610f97565b60405180910390fd5b42600160003373ffffffffffffffffffffffffffffffffffffffff1673ffffffffffffffffffffffffffffffffffffffff1681526020019081526020016000208190555060016000803373ffffffffffffffffffffffffffffffffffffffff1673ffffffffffffffffffffffffffffffffffffffff168152602001908152602001600020600082825461023491906110d4565b9250508190555061027a6040518060400160405280600d81526020017f257320686173207761766564210000000000000000000000000000000000000081525033610829565b600360405180606001604052803373ffffffffffffffffffffffffffffffffffffffff16815260200183815260200142815250908060018154018082558091505060019003906000526020600020906003020160009091909190915060008201518160000160006101000a81548173ffffffffffffffffffffffffffffffffffffffff021916908373ffffffffffffffffffffffffffffffffffffffff1602179055506020820151816001019080519060200190610339929190610a29565b506040820151816002015550506064600254424461035791906110d4565b61036191906110d4565b61036b91906111da565b6002819055506103b26040518060400160405280601681526020017f52616e646f6d20232067656e6572617465643a202564000000000000000000008152506002546108c5565b6032600254116104f8576103fb6040518060400160405280600781526020017f257320776f6e210000000000000000000000000000000000000000000000000081525033610829565b6000655af3107a4000905047811115610449576040517f08c379a000000000000000000000000000000000000000000000000000000000815260040161044090610f57565b60405180910390fd5b60003373ffffffffffffffffffffffffffffffffffffffff168260405161046f90610e60565b60006040518083038185875af1925050503d80600081146104ac576040519150601f19603f3d011682016040523d82523d6000602084013e6104b1565b606091505b50509050806104f5576040517f08c379a00000000000000000000000000000000000000000000000000000000081526004016104ec90610f77565b60405180910390fd5b50505b3373ffffffffffffffffffffffffffffffffffffffff167f5f7e16dc676677766a70e9c5628aa6c54ddb8b6e5188e2ae1e1f17f1ffbea7164283604051610540929190610fd2565b60405180910390a250565b60006105cb6040518060400160405280601681526020017f25732068617320256420746f74616c2077617665732100000000000000000000815250336000803373ffffffffffffffffffffffffffffffffffffffff1673ffffffffffffffffffffffffffffffffffffffff16815260200190815260200160002054610961565b6000803373ffffffffffffffffffffffffffffffffffffffff1673ffffffffffffffffffffffffffffffffffffffff16815260200190815260200160002054905090565b60016020528060005260406000206000915090505481565b60606003805480602002602001604051908101604052809291908181526020016000905b8282101561076f57838290600052602060002090600302016040518060600160405290816000820160009054906101000a900473ffffffffffffffffffffffffffffffffffffffff1673ffffffffffffffffffffffffffffffffffffffff1673ffffffffffffffffffffffffffffffffffffffff1681526020016001820180546106d4906111a8565b80601f0160208091040260200160405190810160405280929190818152602001828054610700906111a8565b801561074d5780601f106107225761010080835404028352916020019161074d565b820191906000526020600020905b81548152906001019060200180831161073057829003601f168201915b505050505081526020016002820154815250508152602001906001019061064b565b50505050905090565b60006020528060005260406000206000915090505481565b610826816040516024016107a49190610e97565b6040516020818303038152906040527f41304fac000000000000000000000000000000000000000000000000000000007bffffffffffffffffffffffffffffffffffffffffffffffffffffffff19166020820180517bffffffffffffffffffffffffffffffffffffffffffffffffffffffff8381831617835250505050610a00565b50565b6108c1828260405160240161083f929190610eb9565b6040516020818303038152906040527f319af333000000000000000000000000000000000000000000000000000000007bffffffffffffffffffffffffffffffffffffffffffffffffffffffff19166020820180517bffffffffffffffffffffffffffffffffffffffffffffffffffffffff8381831617835250505050610a00565b5050565b61095d82826040516024016108db929190610f27565b6040516020818303038152906040527f9710a9d0000000000000000000000000000000000000000000000000000000007bffffffffffffffffffffffffffffffffffffffffffffffffffffffff19166020820180517bffffffffffffffffffffffffffffffffffffffffffffffffffffffff8381831617835250505050610a00565b5050565b6109fb83838360405160240161097993929190610ee9565b6040516020818303038152906040527f07c81217000000000000000000000000000000000000000000000000000000007bffffffffffffffffffffffffffffffffffffffffffffffffffffffff19166020820180517bffffffffffffffffffffffffffffffffffffffffffffffffffffffff8381831617835250505050610a00565b505050565b60008151905060006a636f6e736f6c652e6c6f679050602083016000808483855afa5050505050565b828054610a35906111a8565b90600052602060002090601f016020900481019282610a575760008555610a9e565b82601f10610a7057805160ff1916838001178555610a9e565b82800160010185558215610a9e579182015b82811115610a9d578251825591602001919060010190610a82565b5b509050610aab9190610aaf565b5090565b5b80821115610ac8576000816000905550600101610ab0565b5090565b6000610adf610ada84611033565b611002565b905082815260208101848484011115610af757600080fd5b610b02848285611166565b509392505050565b600081359050610b19816112d8565b92915050565b600082601f830112610b3057600080fd5b8135610b40848260208601610acc565b91505092915050565b600060208284031215610b5b57600080fd5b6000610b6984828501610b0a565b91505092915050565b600060208284031215610b8457600080fd5b600082013567ffffffffffffffff811115610b9e57600080fd5b610baa84828501610b1f565b91505092915050565b6000610bbf8383610df2565b905092915050565b610bd08161112a565b82525050565b610bdf8161112a565b82525050565b6000610bf082611073565b610bfa8185611096565b935083602082028501610c0c85611063565b8060005b85811015610c485784840389528151610c298582610bb3565b9450610c3483611089565b925060208a01995050600181019050610c10565b50829750879550505050505092915050565b6000610c658261107e565b610c6f81856110b2565b9350610c7f818560208601611175565b610c88816112c7565b840191505092915050565b6000610c9e8261107e565b610ca881856110c3565b9350610cb8818560208601611175565b610cc1816112c7565b840191505092915050565b6000610cd96034836110c3565b91507f547279696e6720746f207769746864726177206d6f7265206d6f6e657920746860008301527f616e2074686520636f6e7472616374206861732e0000000000000000000000006020830152604082019050919050565b6000610d3f6027836110c3565b91507f4661696c656420746f207769746864726177206d6f6e65792066726f6d20636f60008301527f6e74726163742e000000000000000000000000000000000000000000000000006020830152604082019050919050565b6000610da56008836110c3565b91507f57616974203230730000000000000000000000000000000000000000000000006000830152602082019050919050565b6000610de56000836110a7565b9150600082019050919050565b6000606083016000830151610e0a6000860182610bc7565b5060208301518482036020860152610e228282610c5a565b9150506040830151610e376040860182610e42565b508091505092915050565b610e4b8161115c565b82525050565b610e5a8161115c565b82525050565b6000610e6b82610dd8565b9150819050919050565b60006020820190508181036000830152610e8f8184610be5565b905092915050565b60006020820190508181036000830152610eb18184610c93565b905092915050565b60006040820190508181036000830152610ed38185610c93565b9050610ee26020830184610bd6565b9392505050565b60006060820190508181036000830152610f038186610c93565b9050610f126020830185610bd6565b610f1f6040830184610e51565b949350505050565b60006040820190508181036000830152610f418185610c93565b9050610f506020830184610e51565b9392505050565b60006020820190508181036000830152610f7081610ccc565b9050919050565b60006020820190508181036000830152610f9081610d32565b9050919050565b60006020820190508181036000830152610fb081610d98565b9050919050565b6000602082019050610fcc6000830184610e51565b92915050565b6000604082019050610fe76000830185610e51565b8181036020830152610ff98184610c93565b90509392505050565b6000604051905081810181811067ffffffffffffffff8211171561102957611028611298565b5b8060405250919050565b600067ffffffffffffffff82111561104e5761104d611298565b5b601f19601f8301169050602081019050919050565b6000819050602082019050919050565b600081519050919050565b600081519050919050565b6000602082019050919050565b600082825260208201905092915050565b600081905092915050565b600082825260208201905092915050565b600082825260208201905092915050565b60006110df8261115c565b91506110ea8361115c565b9250827fffffffffffffffffffffffffffffffffffffffffffffffffffffffffffffffff0382111561111f5761111e61120b565b5b828201905092915050565b60006111358261113c565b9050919050565b600073ffffffffffffffffffffffffffffffffffffffff82169050919050565b6000819050919050565b82818337600083830152505050565b60005b83811015611193578082015181840152602081019050611178565b838111156111a2576000848401525b50505050565b600060028204905060018216806111c057607f821691505b602082108114156111d4576111d3611269565b5b50919050565b60006111e58261115c565b91506111f08361115c565b925082611200576111ff61123a565b5b828206905092915050565b7f4e487b7100000000000000000000000000000000000000000000000000000000600052601160045260246000fd5b7f4e487b7100000000000000000000000000000000000000000000000000000000600052601260045260246000fd5b7f4e487b7100000000000000000000000000000000000000000000000000000000600052602260045260246000fd5b7f4e487b7100000000000000000000000000000000000000000000000000000000600052604160045260246000fd5b6000601f19601f8301169050919050565b6112e18161112a565b81146112ec57600080fd5b5056fea26469706673582212207a121f47b1a9f09d5df815268dadb7969925c227c53900a11b6ee540c987aa1d64736f6c634300080000335761766520706f7274616c20696e6974696174696e67206d616e79206675747572652048656c6c6f73",
  "linkReferences": {},
  "deployedLinkReferences": {}
}