{
    "_format": "hh-sol-artifact-1",
    "contractName": "WavePortal",
    "sourceName": "contracts/WavePortal.sol",
    "abi": [
        {
            "inputs": [],
            "stateMutability": "nonpayable",
            "type": "constructor"
        },
        {
            "inputs": [],
            "name": "getTotalWaves",
            "outputs": [
                {
                    "internalType": "uint256",
                    "name": "",
                    "type": "uint256"
                }
            ],
            "stateMutability": "view",
            "type": "function"
        },
        {
            "inputs": [
                {
                    "internalType": "address",
                    "name": "",
                    "type": "address"
                }
            ],
            "name": "totalWaves",
            "outputs": [
                {
                    "internalType": "uint256",
                    "name": "",
                    "type": "uint256"
                }
            ],
            "stateMutability": "view",
            "type": "function"
        },
        {
            "inputs": [],
            "name": "wave",
            "outputs": [],
            "stateMutability": "nonpayable",
            "type": "function"
        }
    ],
    "bytecode": "0x608060405234801561001057600080fd5b5061003c60405180606001604052806029815260200161088f6029913961004160201b6102111760201c565b6101c4565b6100dd816040516024016100559190610142565b6040516020818303038152906040527f41304fac000000000000000000000000000000000000000000000000000000007bffffffffffffffffffffffffffffffffffffffffffffffffffffffff19166020820180517bffffffffffffffffffffffffffffffffffffffffffffffffffffffff83818316178352505050506100e060201b60201c565b50565b60008151905060006a636f6e736f6c652e6c6f679050602083016000808483855afa5050505050565b600061011482610164565b61011e818561016f565b935061012e818560208601610180565b610137816101b3565b840191505092915050565b6000602082019050818103600083015261015c8184610109565b905092915050565b600081519050919050565b600082825260208201905092915050565b60005b8381101561019e578082015181840152602081019050610183565b838111156101ad576000848401525b50505050565b6000601f19601f8301169050919050565b6106bc806101d36000396000f3fe608060405234801561001057600080fd5b50600436106100415760003560e01c80636fe15b44146100465780639a2cdc0814610050578063fd4312261461006e575b600080fd5b61004e61009e565b005b610058610135565b6040516100659190610533565b60405180910390f35b61008860048036038101906100839190610423565b6101f9565b6040516100959190610533565b60405180910390f35b60016000803373ffffffffffffffffffffffffffffffffffffffff1673ffffffffffffffffffffffffffffffffffffffff16815260200190815260200160002060008282546100ed919061056a565b925050819055506101336040518060400160405280600d81526020017f2573206861732077617665642100000000000000000000000000000000000000815250336102aa565b565b60006101b56040518060400160405280601681526020017f25732068617320256420746f74616c2077617665732100000000000000000000815250336000803373ffffffffffffffffffffffffffffffffffffffff1673ffffffffffffffffffffffffffffffffffffffff16815260200190815260200160002054610346565b6000803373ffffffffffffffffffffffffffffffffffffffff1673ffffffffffffffffffffffffffffffffffffffff16815260200190815260200160002054905090565b60006020528060005260406000206000915090505481565b6102a78160405160240161022591906104a3565b6040516020818303038152906040527f41304fac000000000000000000000000000000000000000000000000000000007bffffffffffffffffffffffffffffffffffffffffffffffffffffffff19166020820180517bffffffffffffffffffffffffffffffffffffffffffffffffffffffff83818316178352505050506103e5565b50565b61034282826040516024016102c09291906104c5565b6040516020818303038152906040527f319af333000000000000000000000000000000000000000000000000000000007bffffffffffffffffffffffffffffffffffffffffffffffffffffffff19166020820180517bffffffffffffffffffffffffffffffffffffffffffffffffffffffff83818316178352505050506103e5565b5050565b6103e083838360405160240161035e939291906104f5565b6040516020818303038152906040527f07c81217000000000000000000000000000000000000000000000000000000007bffffffffffffffffffffffffffffffffffffffffffffffffffffffff19166020820180517bffffffffffffffffffffffffffffffffffffffffffffffffffffffff83818316178352505050506103e5565b505050565b60008151905060006a636f6e736f6c652e6c6f679050602083016000808483855afa5050505050565b60008135905061041d8161066f565b92915050565b60006020828403121561043557600080fd5b60006104438482850161040e565b91505092915050565b610455816105c0565b82525050565b60006104668261054e565b6104708185610559565b93506104808185602086016105fc565b6104898161065e565b840191505092915050565b61049d816105f2565b82525050565b600060208201905081810360008301526104bd818461045b565b905092915050565b600060408201905081810360008301526104df818561045b565b90506104ee602083018461044c565b9392505050565b6000606082019050818103600083015261050f818661045b565b905061051e602083018561044c565b61052b6040830184610494565b949350505050565b60006020820190506105486000830184610494565b92915050565b600081519050919050565b600082825260208201905092915050565b6000610575826105f2565b9150610580836105f2565b9250827fffffffffffffffffffffffffffffffffffffffffffffffffffffffffffffffff038211156105b5576105b461062f565b5b828201905092915050565b60006105cb826105d2565b9050919050565b600073ffffffffffffffffffffffffffffffffffffffff82169050919050565b6000819050919050565b60005b8381101561061a5780820151818401526020810190506105ff565b83811115610629576000848401525b50505050565b7f4e487b7100000000000000000000000000000000000000000000000000000000600052601160045260246000fd5b6000601f19601f8301169050919050565b610678816105c0565b811461068357600080fd5b5056fea2646970667358221220c6f6acd00af67ac84b92b4cac56a0da7a7e64e20b1b60e3845e0f70786e5161164736f6c634300080000335761766520706f7274616c20696e6974696174696e67206d616e79206675747572652048656c6c6f73",
    "linkReferences": {},
    "deployedLinkReferences": {}
}