{
  "_format": "hh-sol-artifact-1",
  "contractName": "WavePortal",
  "sourceName": "contracts/WavePortal.sol",
  "abi": [
    {
      "inputs": [],
      "stateMutability": "nonpayable",
      "type": "constructor"
    },
    {
      "anonymous": false,
      "inputs": [
        {
          "indexed": true,
          "internalType": "address",
          "name": "from",
          "type": "address"
        },
        {
          "indexed": false,
          "internalType": "uint256",
          "name": "timestamp",
          "type": "uint256"
        },
        {
          "indexed": false,
          "internalType": "string",
          "name": "message",
          "type": "string"
        }
      ],
      "name": "NewWave",
      "type": "event"
    },
    {
      "inputs": [],
      "name": "getTotalWaves",
      "outputs": [
        {
          "internalType": "uint256",
          "name": "",
          "type": "uint256"
        }
      ],
      "stateMutability": "view",
      "type": "function"
    },
    {
      "inputs": [
        {
          "internalType": "address",
          "name": "",
          "type": "address"
        }
      ],
      "name": "totalWaves",
      "outputs": [
        {
          "internalType": "uint256",
          "name": "",
          "type": "uint256"
        }
      ],
      "stateMutability": "view",
      "type": "function"
    },
    {
      "inputs": [
        {
          "internalType": "string",
          "name": "_message",
          "type": "string"
        }
      ],
      "name": "wave",
      "outputs": [],
      "stateMutability": "nonpayable",
      "type": "function"
    }
  ],
  "bytecode": "0x608060405234801561001057600080fd5b5061003d60405180606001604052806029815260200162000c3c6029913961004260201b6103401760201c565b6101c5565b6100de816040516024016100569190610143565b6040516020818303038152906040527f41304fac000000000000000000000000000000000000000000000000000000007bffffffffffffffffffffffffffffffffffffffffffffffffffffffff19166020820180517bffffffffffffffffffffffffffffffffffffffffffffffffffffffff83818316178352505050506100e160201b60201c565b50565b60008151905060006a636f6e736f6c652e6c6f679050602083016000808483855afa5050505050565b600061011582610165565b61011f8185610170565b935061012f818560208601610181565b610138816101b4565b840191505092915050565b6000602082019050818103600083015261015d818461010a565b905092915050565b600081519050919050565b600082825260208201905092915050565b60005b8381101561019f578082015181840152602081019050610184565b838111156101ae576000848401525b50505050565b6000601f19601f8301169050919050565b610a6780620001d56000396000f3fe608060405234801561001057600080fd5b50600436106100415760003560e01c8063449d46c0146100465780639a2cdc0814610062578063fd43122614610080575b600080fd5b610060600480360381019061005b9190610686565b6100b0565b005b61006a610264565b60405161007791906107ae565b60405180910390f35b61009a6004803603810190610095919061065d565b610328565b6040516100a791906107ae565b60405180910390f35b60016000803373ffffffffffffffffffffffffffffffffffffffff1673ffffffffffffffffffffffffffffffffffffffff16815260200190815260200160002060008282546100ff9190610876565b925050819055506101456040518060400160405280600d81526020017f2573206861732077617665642100000000000000000000000000000000000000815250336103d9565b600160405180606001604052803373ffffffffffffffffffffffffffffffffffffffff16815260200183815260200142815250908060018154018082558091505060019003906000526020600020906003020160009091909190915060008201518160000160006101000a81548173ffffffffffffffffffffffffffffffffffffffff021916908373ffffffffffffffffffffffffffffffffffffffff160217905550602082015181600101908051906020019061020492919061053d565b506040820151816002015550503373ffffffffffffffffffffffffffffffffffffffff167f5f7e16dc676677766a70e9c5628aa6c54ddb8b6e5188e2ae1e1f17f1ffbea71642836040516102599291906107c9565b60405180910390a250565b60006102e46040518060400160405280601681526020017f25732068617320256420746f74616c2077617665732100000000000000000000815250336000803373ffffffffffffffffffffffffffffffffffffffff1673ffffffffffffffffffffffffffffffffffffffff16815260200190815260200160002054610475565b6000803373ffffffffffffffffffffffffffffffffffffffff1673ffffffffffffffffffffffffffffffffffffffff16815260200190815260200160002054905090565b60006020528060005260406000206000915090505481565b6103d681604051602401610354919061071e565b6040516020818303038152906040527f41304fac000000000000000000000000000000000000000000000000000000007bffffffffffffffffffffffffffffffffffffffffffffffffffffffff19166020820180517bffffffffffffffffffffffffffffffffffffffffffffffffffffffff8381831617835250505050610514565b50565b61047182826040516024016103ef929190610740565b6040516020818303038152906040527f319af333000000000000000000000000000000000000000000000000000000007bffffffffffffffffffffffffffffffffffffffffffffffffffffffff19166020820180517bffffffffffffffffffffffffffffffffffffffffffffffffffffffff8381831617835250505050610514565b5050565b61050f83838360405160240161048d93929190610770565b6040516020818303038152906040527f07c81217000000000000000000000000000000000000000000000000000000007bffffffffffffffffffffffffffffffffffffffffffffffffffffffff19166020820180517bffffffffffffffffffffffffffffffffffffffffffffffffffffffff8381831617835250505050610514565b505050565b60008151905060006a636f6e736f6c652e6c6f679050602083016000808483855afa5050505050565b8280546105499061094a565b90600052602060002090601f01602090048101928261056b57600085556105b2565b82601f1061058457805160ff19168380011785556105b2565b828001600101855582156105b2579182015b828111156105b1578251825591602001919060010190610596565b5b5090506105bf91906105c3565b5090565b5b808211156105dc5760008160009055506001016105c4565b5090565b60006105f36105ee8461082a565b6107f9565b90508281526020810184848401111561060b57600080fd5b610616848285610908565b509392505050565b60008135905061062d81610a1a565b92915050565b600082601f83011261064457600080fd5b81356106548482602086016105e0565b91505092915050565b60006020828403121561066f57600080fd5b600061067d8482850161061e565b91505092915050565b60006020828403121561069857600080fd5b600082013567ffffffffffffffff8111156106b257600080fd5b6106be84828501610633565b91505092915050565b6106d0816108cc565b82525050565b60006106e18261085a565b6106eb8185610865565b93506106fb818560208601610917565b61070481610a09565b840191505092915050565b610718816108fe565b82525050565b6000602082019050818103600083015261073881846106d6565b905092915050565b6000604082019050818103600083015261075a81856106d6565b905061076960208301846106c7565b9392505050565b6000606082019050818103600083015261078a81866106d6565b905061079960208301856106c7565b6107a6604083018461070f565b949350505050565b60006020820190506107c3600083018461070f565b92915050565b60006040820190506107de600083018561070f565b81810360208301526107f081846106d6565b90509392505050565b6000604051905081810181811067ffffffffffffffff821117156108205761081f6109da565b5b8060405250919050565b600067ffffffffffffffff821115610845576108446109da565b5b601f19601f8301169050602081019050919050565b600081519050919050565b600082825260208201905092915050565b6000610881826108fe565b915061088c836108fe565b9250827fffffffffffffffffffffffffffffffffffffffffffffffffffffffffffffffff038211156108c1576108c061097c565b5b828201905092915050565b60006108d7826108de565b9050919050565b600073ffffffffffffffffffffffffffffffffffffffff82169050919050565b6000819050919050565b82818337600083830152505050565b60005b8381101561093557808201518184015260208101905061091a565b83811115610944576000848401525b50505050565b6000600282049050600182168061096257607f821691505b60208210811415610976576109756109ab565b5b50919050565b7f4e487b7100000000000000000000000000000000000000000000000000000000600052601160045260246000fd5b7f4e487b7100000000000000000000000000000000000000000000000000000000600052602260045260246000fd5b7f4e487b7100000000000000000000000000000000000000000000000000000000600052604160045260246000fd5b6000601f19601f8301169050919050565b610a23816108cc565b8114610a2e57600080fd5b5056fea2646970667358221220f23a53be32b241c8738e9850b77f46e026e6aaed747bca9040c4d2b7910868e064736f6c634300080000335761766520706f7274616c20696e6974696174696e67206d616e79206675747572652048656c6c6f73",
  "linkReferences": {},
  "deployedLinkReferences": {}
}